{
  "_format": "hh-sol-artifact-1",
  "contractName": "WhitelistNFT",
  "sourceName": "contracts/VKEvent.sol",
  "abi": [
    {
      "inputs": [
        {
          "internalType": "string",
          "name": "name",
          "type": "string"
        },
        {
          "internalType": "string",
          "name": "symbol",
          "type": "string"
        },
        {
          "internalType": "uint256",
          "name": "_eventId",
          "type": "uint256"
        },
        {
          "internalType": "string",
          "name": "_baseUri",
          "type": "string"
        },
        {
          "internalType": "address[]",
          "name": "_addresses",
          "type": "address[]"
        },
        {
          "internalType": "bool",
          "name": "_published",
          "type": "bool"
        }
      ],
      "stateMutability": "nonpayable",
      "type": "constructor"
    },
    {
      "anonymous": false,
      "inputs": [
        {
          "indexed": true,
          "internalType": "address",
          "name": "owner",
          "type": "address"
        },
        {
          "indexed": true,
          "internalType": "address",
          "name": "approved",
          "type": "address"
        },
        {
          "indexed": true,
          "internalType": "uint256",
          "name": "tokenId",
          "type": "uint256"
        }
      ],
      "name": "Approval",
      "type": "event"
    },
    {
      "anonymous": false,
      "inputs": [
        {
          "indexed": true,
          "internalType": "address",
          "name": "owner",
          "type": "address"
        },
        {
          "indexed": true,
          "internalType": "address",
          "name": "operator",
          "type": "address"
        },
        {
          "indexed": false,
          "internalType": "bool",
          "name": "approved",
          "type": "bool"
        }
      ],
      "name": "ApprovalForAll",
      "type": "event"
    },
    {
      "anonymous": false,
      "inputs": [
        {
          "indexed": true,
          "internalType": "address",
          "name": "previousOwner",
          "type": "address"
        },
        {
          "indexed": true,
          "internalType": "address",
          "name": "newOwner",
          "type": "address"
        }
      ],
      "name": "OwnershipTransferred",
      "type": "event"
    },
    {
      "anonymous": false,
      "inputs": [
        {
          "indexed": true,
          "internalType": "address",
          "name": "from",
          "type": "address"
        },
        {
          "indexed": true,
          "internalType": "address",
          "name": "to",
          "type": "address"
        },
        {
          "indexed": true,
          "internalType": "uint256",
          "name": "tokenId",
          "type": "uint256"
        }
      ],
      "name": "Transfer",
      "type": "event"
    },
    {
      "inputs": [
        {
          "internalType": "address",
          "name": "to",
          "type": "address"
        },
        {
          "internalType": "uint256",
          "name": "tokenId",
          "type": "uint256"
        }
      ],
      "name": "approve",
      "outputs": [],
      "stateMutability": "nonpayable",
      "type": "function"
    },
    {
      "inputs": [
        {
          "internalType": "address",
          "name": "owner",
          "type": "address"
        }
      ],
      "name": "balanceOf",
      "outputs": [
        {
          "internalType": "uint256",
          "name": "",
          "type": "uint256"
        }
      ],
      "stateMutability": "view",
      "type": "function"
    },
    {
      "inputs": [],
      "name": "baseURI",
      "outputs": [
        {
          "internalType": "string",
          "name": "",
          "type": "string"
        }
      ],
      "stateMutability": "view",
      "type": "function"
    },
    {
      "inputs": [],
      "name": "claimNFT",
      "outputs": [],
      "stateMutability": "nonpayable",
      "type": "function"
    },
    {
      "inputs": [],
      "name": "currentSupply",
      "outputs": [
        {
          "internalType": "uint256",
          "name": "",
          "type": "uint256"
        }
      ],
      "stateMutability": "view",
      "type": "function"
    },
    {
      "inputs": [],
      "name": "eventId",
      "outputs": [
        {
          "internalType": "uint256",
          "name": "",
          "type": "uint256"
        }
      ],
      "stateMutability": "view",
      "type": "function"
    },
    {
      "inputs": [
        {
          "internalType": "uint256",
          "name": "tokenId",
          "type": "uint256"
        }
      ],
      "name": "getApproved",
      "outputs": [
        {
          "internalType": "address",
          "name": "",
          "type": "address"
        }
      ],
      "stateMutability": "view",
      "type": "function"
    },
    {
      "inputs": [
        {
          "internalType": "address",
          "name": "owner",
          "type": "address"
        },
        {
          "internalType": "address",
          "name": "operator",
          "type": "address"
        }
      ],
      "name": "isApprovedForAll",
      "outputs": [
        {
          "internalType": "bool",
          "name": "",
          "type": "bool"
        }
      ],
      "stateMutability": "view",
      "type": "function"
    },
    {
      "inputs": [],
      "name": "name",
      "outputs": [
        {
          "internalType": "string",
          "name": "",
          "type": "string"
        }
      ],
      "stateMutability": "view",
      "type": "function"
    },
    {
      "inputs": [],
      "name": "owner",
      "outputs": [
        {
          "internalType": "address",
          "name": "",
          "type": "address"
        }
      ],
      "stateMutability": "view",
      "type": "function"
    },
    {
      "inputs": [
        {
          "internalType": "uint256",
          "name": "tokenId",
          "type": "uint256"
        }
      ],
      "name": "ownerOf",
      "outputs": [
        {
          "internalType": "address",
          "name": "",
          "type": "address"
        }
      ],
      "stateMutability": "view",
      "type": "function"
    },
    {
      "inputs": [],
      "name": "publish",
      "outputs": [],
      "stateMutability": "nonpayable",
      "type": "function"
    },
    {
      "inputs": [],
      "name": "published",
      "outputs": [
        {
          "internalType": "bool",
          "name": "",
          "type": "bool"
        }
      ],
      "stateMutability": "view",
      "type": "function"
    },
    {
      "inputs": [],
      "name": "renounceOwnership",
      "outputs": [],
      "stateMutability": "nonpayable",
      "type": "function"
    },
    {
      "inputs": [
        {
          "internalType": "address",
          "name": "from",
          "type": "address"
        },
        {
          "internalType": "address",
          "name": "to",
          "type": "address"
        },
        {
          "internalType": "uint256",
          "name": "tokenId",
          "type": "uint256"
        }
      ],
      "name": "safeTransferFrom",
      "outputs": [],
      "stateMutability": "nonpayable",
      "type": "function"
    },
    {
      "inputs": [
        {
          "internalType": "address",
          "name": "from",
          "type": "address"
        },
        {
          "internalType": "address",
          "name": "to",
          "type": "address"
        },
        {
          "internalType": "uint256",
          "name": "tokenId",
          "type": "uint256"
        },
        {
          "internalType": "bytes",
          "name": "data",
          "type": "bytes"
        }
      ],
      "name": "safeTransferFrom",
      "outputs": [],
      "stateMutability": "nonpayable",
      "type": "function"
    },
    {
      "inputs": [
        {
          "internalType": "address",
          "name": "operator",
          "type": "address"
        },
        {
          "internalType": "bool",
          "name": "approved",
          "type": "bool"
        }
      ],
      "name": "setApprovalForAll",
      "outputs": [],
      "stateMutability": "nonpayable",
      "type": "function"
    },
    {
      "inputs": [
        {
          "internalType": "bytes4",
          "name": "interfaceId",
          "type": "bytes4"
        }
      ],
      "name": "supportsInterface",
      "outputs": [
        {
          "internalType": "bool",
          "name": "",
          "type": "bool"
        }
      ],
      "stateMutability": "view",
      "type": "function"
    },
    {
      "inputs": [],
      "name": "symbol",
      "outputs": [
        {
          "internalType": "string",
          "name": "",
          "type": "string"
        }
      ],
      "stateMutability": "view",
      "type": "function"
    },
    {
      "inputs": [
        {
          "internalType": "uint256",
          "name": "tokenId",
          "type": "uint256"
        }
      ],
      "name": "tokenURI",
      "outputs": [
        {
          "internalType": "string",
          "name": "",
          "type": "string"
        }
      ],
      "stateMutability": "view",
      "type": "function"
    },
    {
      "inputs": [
        {
          "internalType": "address",
          "name": "from",
          "type": "address"
        },
        {
          "internalType": "address",
          "name": "to",
          "type": "address"
        },
        {
          "internalType": "uint256",
          "name": "tokenId",
          "type": "uint256"
        }
      ],
      "name": "transferFrom",
      "outputs": [],
      "stateMutability": "nonpayable",
      "type": "function"
    },
    {
      "inputs": [
        {
          "internalType": "address",
          "name": "newOwner",
          "type": "address"
        }
      ],
      "name": "transferOwnership",
      "outputs": [],
      "stateMutability": "nonpayable",
      "type": "function"
    },
    {
      "inputs": [
        {
          "internalType": "address",
          "name": "",
          "type": "address"
        }
      ],
      "name": "whitelist",
      "outputs": [
        {
          "internalType": "bool",
          "name": "",
          "type": "bool"
        }
      ],
      "stateMutability": "view",
      "type": "function"
    }
  ],
  "bytecode": "0x60a060405260006007553480156200001657600080fd5b5060405162003c2038038062003c2083398181016040528101906200003c9190620006b3565b858581600090816200004f919062000a0c565b50806001908162000061919062000a0c565b5050506200008462000078620001b260201b60201c565b620001ba60201b60201c565b600a8251111580156200009957506005825110155b620000db576040517f08c379a0000000000000000000000000000000000000000000000000000000008152600401620000d29062000b7a565b60405180910390fd5b83608081815250508260099081620000f4919062000a0c565b5060005b82518110156200018d576001600860008584815181106200011e576200011d62000b9c565b5b602002602001015173ffffffffffffffffffffffffffffffffffffffff1673ffffffffffffffffffffffffffffffffffffffff16815260200190815260200160002060006101000a81548160ff0219169083151502179055508080620001849062000bfa565b915050620000f8565b508015620001a657620001a56200028060201b60201c565b5b50505050505062000cb9565b600033905090565b6000600660009054906101000a900473ffffffffffffffffffffffffffffffffffffffff16905081600660006101000a81548173ffffffffffffffffffffffffffffffffffffffff021916908373ffffffffffffffffffffffffffffffffffffffff1602179055508173ffffffffffffffffffffffffffffffffffffffff168173ffffffffffffffffffffffffffffffffffffffff167f8be0079c531659141344cd1fd0a4f28419497f9722a3daafe3b4186f6b6457e060405160405180910390a35050565b62000290620002ad60201b60201c565b6001600a60006101000a81548160ff021916908315150217905550565b620002bd620001b260201b60201c565b73ffffffffffffffffffffffffffffffffffffffff16620002e36200033e60201b60201c565b73ffffffffffffffffffffffffffffffffffffffff16146200033c576040517f08c379a0000000000000000000000000000000000000000000000000000000008152600401620003339062000c97565b60405180910390fd5b565b6000600660009054906101000a900473ffffffffffffffffffffffffffffffffffffffff16905090565b6000604051905090565b600080fd5b600080fd5b600080fd5b600080fd5b6000601f19601f8301169050919050565b7f4e487b7100000000000000000000000000000000000000000000000000000000600052604160045260246000fd5b620003d18262000386565b810181811067ffffffffffffffff82111715620003f357620003f262000397565b5b80604052505050565b60006200040862000368565b9050620004168282620003c6565b919050565b600067ffffffffffffffff82111562000439576200043862000397565b5b620004448262000386565b9050602081019050919050565b60005b838110156200047157808201518184015260208101905062000454565b60008484015250505050565b6000620004946200048e846200041b565b620003fc565b905082815260208101848484011115620004b357620004b262000381565b5b620004c084828562000451565b509392505050565b600082601f830112620004e057620004df6200037c565b5b8151620004f28482602086016200047d565b91505092915050565b6000819050919050565b6200051081620004fb565b81146200051c57600080fd5b50565b600081519050620005308162000505565b92915050565b600067ffffffffffffffff82111562000554576200055362000397565b5b602082029050602081019050919050565b600080fd5b600073ffffffffffffffffffffffffffffffffffffffff82169050919050565b600062000597826200056a565b9050919050565b620005a9816200058a565b8114620005b557600080fd5b50565b600081519050620005c9816200059e565b92915050565b6000620005e6620005e08462000536565b620003fc565b905080838252602082019050602084028301858111156200060c576200060b62000565565b5b835b81811015620006395780620006248882620005b8565b8452602084019350506020810190506200060e565b5050509392505050565b600082601f8301126200065b576200065a6200037c565b5b81516200066d848260208601620005cf565b91505092915050565b60008115159050919050565b6200068d8162000676565b81146200069957600080fd5b50565b600081519050620006ad8162000682565b92915050565b60008060008060008060c08789031215620006d357620006d262000372565b5b600087015167ffffffffffffffff811115620006f457620006f362000377565b5b6200070289828a01620004c8565b965050602087015167ffffffffffffffff81111562000726576200072562000377565b5b6200073489828a01620004c8565b95505060406200074789828a016200051f565b945050606087015167ffffffffffffffff8111156200076b576200076a62000377565b5b6200077989828a01620004c8565b935050608087015167ffffffffffffffff8111156200079d576200079c62000377565b5b620007ab89828a0162000643565b92505060a0620007be89828a016200069c565b9150509295509295509295565b600081519050919050565b7f4e487b7100000000000000000000000000000000000000000000000000000000600052602260045260246000fd5b600060028204905060018216806200081e57607f821691505b602082108103620008345762000833620007d6565b5b50919050565b60008190508160005260206000209050919050565b60006020601f8301049050919050565b600082821b905092915050565b6000600883026200089e7fffffffffffffffffffffffffffffffffffffffffffffffffffffffffffffffff826200085f565b620008aa86836200085f565b95508019841693508086168417925050509392505050565b6000819050919050565b6000620008ed620008e7620008e184620004fb565b620008c2565b620004fb565b9050919050565b6000819050919050565b6200090983620008cc565b620009216200091882620008f4565b8484546200086c565b825550505050565b600090565b6200093862000929565b62000945818484620008fe565b505050565b5b818110156200096d57620009616000826200092e565b6001810190506200094b565b5050565b601f821115620009bc5762000986816200083a565b62000991846200084f565b81016020851015620009a1578190505b620009b9620009b0856200084f565b8301826200094a565b50505b505050565b600082821c905092915050565b6000620009e160001984600802620009c1565b1980831691505092915050565b6000620009fc8383620009ce565b9150826002028217905092915050565b62000a1782620007cb565b67ffffffffffffffff81111562000a335762000a3262000397565b5b62000a3f825462000805565b62000a4c82828562000971565b600060209050601f83116001811462000a84576000841562000a6f578287015190505b62000a7b8582620009ee565b86555062000aeb565b601f19841662000a94866200083a565b60005b8281101562000abe5784890151825560018201915060208501945060208101905062000a97565b8683101562000ade578489015162000ada601f891682620009ce565b8355505b6001600288020188555050505b505050505050565b600082825260208201905092915050565b7f5f6164647265737365732e6c656e6774682073686f756c6420626520696e205b60008201527f353b31305d000000000000000000000000000000000000000000000000000000602082015250565b600062000b6260258362000af3565b915062000b6f8262000b04565b604082019050919050565b6000602082019050818103600083015262000b958162000b53565b9050919050565b7f4e487b7100000000000000000000000000000000000000000000000000000000600052603260045260246000fd5b7f4e487b7100000000000000000000000000000000000000000000000000000000600052601160045260246000fd5b600062000c0782620004fb565b91507fffffffffffffffffffffffffffffffffffffffffffffffffffffffffffffffff820362000c3c5762000c3b62000bcb565b5b600182019050919050565b7f4f776e61626c653a2063616c6c6572206973206e6f7420746865206f776e6572600082015250565b600062000c7f60208362000af3565b915062000c8c8262000c47565b602082019050919050565b6000602082019050818103600083015262000cb28162000c70565b9050919050565b608051612f4462000cdc6000396000818161061b01526116260152612f446000f3fe608060405234801561001057600080fd5b506004361061014d5760003560e01c806370a08231116100c35780639b19251a1161007c5780639b19251a14610356578063a22cb46514610386578063b88d4fde146103a2578063c87b56dd146103be578063e985e9c5146103ee578063f2fde38b1461041e5761014d565b806370a08231146102a4578063715018a6146102d4578063771282f6146102de5780638d4d2b0c146102fc5780638da5cb5b1461031a57806395d89b41146103385761014d565b8063095ea7b311610115578063095ea7b3146101f857806323b872dd1461021457806342842e0e146102305780636352211e1461024c578063672756ad1461027c5780636c0360eb146102865761014d565b806301ffc9a71461015257806306fdde0314610182578063075d4782146101a0578063081812fc146101aa578063089cdd0c146101da575b600080fd5b61016c60048036038101906101679190611e8b565b61043a565b6040516101799190611ed3565b60405180910390f35b61018a61051c565b6040516101979190611f7e565b60405180910390f35b6101a86105ae565b005b6101c460048036038101906101bf9190611fd6565b6105d3565b6040516101d19190612044565b60405180910390f35b6101e2610619565b6040516101ef919061206e565b60405180910390f35b610212600480360381019061020d91906120b5565b61063d565b005b61022e600480360381019061022991906120f5565b610754565b005b61024a600480360381019061024591906120f5565b6107b4565b005b61026660048036038101906102619190611fd6565b6107d4565b6040516102739190612044565b60405180910390f35b61028461085a565b005b61028e61096d565b60405161029b9190611f7e565b60405180910390f35b6102be60048036038101906102b99190612148565b6109fb565b6040516102cb919061206e565b60405180910390f35b6102dc610ab2565b005b6102e6610ac6565b6040516102f3919061206e565b60405180910390f35b610304610acc565b6040516103119190611ed3565b60405180910390f35b610322610adf565b60405161032f9190612044565b60405180910390f35b610340610b09565b60405161034d9190611f7e565b60405180910390f35b610370600480360381019061036b9190612148565b610b9b565b60405161037d9190611ed3565b60405180910390f35b6103a0600480360381019061039b91906121a1565b610bbb565b005b6103bc60048036038101906103b79190612316565b610bd1565b005b6103d860048036038101906103d39190611fd6565b610c33565b6040516103e59190611f7e565b60405180910390f35b61040860048036038101906104039190612399565b610c9b565b6040516104159190611ed3565b60405180910390f35b61043860048036038101906104339190612148565b610d2f565b005b60007f80ac58cd000000000000000000000000000000000000000000000000000000007bffffffffffffffffffffffffffffffffffffffffffffffffffffffff1916827bffffffffffffffffffffffffffffffffffffffffffffffffffffffff1916148061050557507f5b5e139f000000000000000000000000000000000000000000000000000000007bffffffffffffffffffffffffffffffffffffffffffffffffffffffff1916827bffffffffffffffffffffffffffffffffffffffffffffffffffffffff1916145b80610515575061051482610db2565b5b9050919050565b60606000805461052b90612408565b80601f016020809104026020016040519081016040528092919081815260200182805461055790612408565b80156105a45780601f10610579576101008083540402835291602001916105a4565b820191906000526020600020905b81548152906001019060200180831161058757829003601f168201915b5050505050905090565b6105b6610e1c565b6001600a60006101000a81548160ff021916908315150217905550565b60006105de82610e9a565b6004600083815260200190815260200160002060009054906101000a900473ffffffffffffffffffffffffffffffffffffffff169050919050565b7f000000000000000000000000000000000000000000000000000000000000000081565b6000610648826107d4565b90508073ffffffffffffffffffffffffffffffffffffffff168373ffffffffffffffffffffffffffffffffffffffff16036106b8576040517f08c379a00000000000000000000000000000000000000000000000000000000081526004016106af906124ab565b60405180910390fd5b8073ffffffffffffffffffffffffffffffffffffffff166106d7610ee5565b73ffffffffffffffffffffffffffffffffffffffff161480610706575061070581610700610ee5565b610c9b565b5b610745576040517f08c379a000000000000000000000000000000000000000000000000000000000815260040161073c9061253d565b60405180910390fd5b61074f8383610eed565b505050565b61076561075f610ee5565b82610fa6565b6107a4576040517f08c379a000000000000000000000000000000000000000000000000000000000815260040161079b906125cf565b60405180910390fd5b6107af83838361103b565b505050565b6107cf83838360405180602001604052806000815250610bd1565b505050565b6000806107e083611334565b9050600073ffffffffffffffffffffffffffffffffffffffff168173ffffffffffffffffffffffffffffffffffffffff1603610851576040517f08c379a00000000000000000000000000000000000000000000000000000000081526004016108489061263b565b60405180910390fd5b80915050919050565b600a60009054906101000a900460ff166108a9576040517f08c379a00000000000000000000000000000000000000000000000000000000081526004016108a0906126a7565b60405180910390fd5b600860003373ffffffffffffffffffffffffffffffffffffffff1673ffffffffffffffffffffffffffffffffffffffff16815260200190815260200160002060009054906101000a900460ff16610935576040517f08c379a000000000000000000000000000000000000000000000000000000000815260040161092c90612713565b60405180910390fd5b600060016007546109469190612762565b90506109523382611371565b6007600081548092919061096590612796565b919050555050565b6009805461097a90612408565b80601f01602080910402602001604051908101604052809291908181526020018280546109a690612408565b80156109f35780601f106109c8576101008083540402835291602001916109f3565b820191906000526020600020905b8154815290600101906020018083116109d657829003601f168201915b505050505081565b60008073ffffffffffffffffffffffffffffffffffffffff168273ffffffffffffffffffffffffffffffffffffffff1603610a6b576040517f08c379a0000000000000000000000000000000000000000000000000000000008152600401610a6290612850565b60405180910390fd5b600360008373ffffffffffffffffffffffffffffffffffffffff1673ffffffffffffffffffffffffffffffffffffffff168152602001908152602001600020549050919050565b610aba610e1c565b610ac4600061138f565b565b60075481565b600a60009054906101000a900460ff1681565b6000600660009054906101000a900473ffffffffffffffffffffffffffffffffffffffff16905090565b606060018054610b1890612408565b80601f0160208091040260200160405190810160405280929190818152602001828054610b4490612408565b8015610b915780601f10610b6657610100808354040283529160200191610b91565b820191906000526020600020905b815481529060010190602001808311610b7457829003601f168201915b5050505050905090565b60086020528060005260406000206000915054906101000a900460ff1681565b610bcd610bc6610ee5565b8383611455565b5050565b610be2610bdc610ee5565b83610fa6565b610c21576040517f08c379a0000000000000000000000000000000000000000000000000000000008152600401610c18906125cf565b60405180910390fd5b610c2d848484846115c1565b50505050565b6060610c3e82610e9a565b6000610c4861161d565b90506000815111610c685760405180602001604052806000815250610c93565b80610c728461166f565b604051602001610c839291906128ac565b6040516020818303038152906040525b915050919050565b6000600560008473ffffffffffffffffffffffffffffffffffffffff1673ffffffffffffffffffffffffffffffffffffffff16815260200190815260200160002060008373ffffffffffffffffffffffffffffffffffffffff1673ffffffffffffffffffffffffffffffffffffffff16815260200190815260200160002060009054906101000a900460ff16905092915050565b610d37610e1c565b600073ffffffffffffffffffffffffffffffffffffffff168173ffffffffffffffffffffffffffffffffffffffff1603610da6576040517f08c379a0000000000000000000000000000000000000000000000000000000008152600401610d9d90612942565b60405180910390fd5b610daf8161138f565b50565b60007f01ffc9a7000000000000000000000000000000000000000000000000000000007bffffffffffffffffffffffffffffffffffffffffffffffffffffffff1916827bffffffffffffffffffffffffffffffffffffffffffffffffffffffff1916149050919050565b610e24610ee5565b73ffffffffffffffffffffffffffffffffffffffff16610e42610adf565b73ffffffffffffffffffffffffffffffffffffffff1614610e98576040517f08c379a0000000000000000000000000000000000000000000000000000000008152600401610e8f906129ae565b60405180910390fd5b565b610ea38161173d565b610ee2576040517f08c379a0000000000000000000000000000000000000000000000000000000008152600401610ed99061263b565b60405180910390fd5b50565b600033905090565b816004600083815260200190815260200160002060006101000a81548173ffffffffffffffffffffffffffffffffffffffff021916908373ffffffffffffffffffffffffffffffffffffffff160217905550808273ffffffffffffffffffffffffffffffffffffffff16610f60836107d4565b73ffffffffffffffffffffffffffffffffffffffff167f8c5be1e5ebec7d5bd14f71427d1e84f3dd0314c0f7b2291e5b200ac8c7c3b92560405160405180910390a45050565b600080610fb2836107d4565b90508073ffffffffffffffffffffffffffffffffffffffff168473ffffffffffffffffffffffffffffffffffffffff161480610ff45750610ff38185610c9b565b5b8061103257508373ffffffffffffffffffffffffffffffffffffffff1661101a846105d3565b73ffffffffffffffffffffffffffffffffffffffff16145b91505092915050565b8273ffffffffffffffffffffffffffffffffffffffff1661105b826107d4565b73ffffffffffffffffffffffffffffffffffffffff16146110b1576040517f08c379a00000000000000000000000000000000000000000000000000000000081526004016110a890612a40565b60405180910390fd5b600073ffffffffffffffffffffffffffffffffffffffff168273ffffffffffffffffffffffffffffffffffffffff1603611120576040517f08c379a000000000000000000000000000000000000000000000000000000000815260040161111790612ad2565b60405180910390fd5b61112d838383600161177e565b8273ffffffffffffffffffffffffffffffffffffffff1661114d826107d4565b73ffffffffffffffffffffffffffffffffffffffff16146111a3576040517f08c379a000000000000000000000000000000000000000000000000000000000815260040161119a90612a40565b60405180910390fd5b6004600082815260200190815260200160002060006101000a81549073ffffffffffffffffffffffffffffffffffffffff02191690556001600360008573ffffffffffffffffffffffffffffffffffffffff1673ffffffffffffffffffffffffffffffffffffffff168152602001908152602001600020600082825403925050819055506001600360008473ffffffffffffffffffffffffffffffffffffffff1673ffffffffffffffffffffffffffffffffffffffff16815260200190815260200160002060008282540192505081905550816002600083815260200190815260200160002060006101000a81548173ffffffffffffffffffffffffffffffffffffffff021916908373ffffffffffffffffffffffffffffffffffffffff160217905550808273ffffffffffffffffffffffffffffffffffffffff168473ffffffffffffffffffffffffffffffffffffffff167fddf252ad1be2c89b69c2b068fc378daa952ba7f163c4a11628f55a4df523b3ef60405160405180910390a461132f83838360016118a4565b505050565b60006002600083815260200190815260200160002060009054906101000a900473ffffffffffffffffffffffffffffffffffffffff169050919050565b61138b8282604051806020016040528060008152506118aa565b5050565b6000600660009054906101000a900473ffffffffffffffffffffffffffffffffffffffff16905081600660006101000a81548173ffffffffffffffffffffffffffffffffffffffff021916908373ffffffffffffffffffffffffffffffffffffffff1602179055508173ffffffffffffffffffffffffffffffffffffffff168173ffffffffffffffffffffffffffffffffffffffff167f8be0079c531659141344cd1fd0a4f28419497f9722a3daafe3b4186f6b6457e060405160405180910390a35050565b8173ffffffffffffffffffffffffffffffffffffffff168373ffffffffffffffffffffffffffffffffffffffff16036114c3576040517f08c379a00000000000000000000000000000000000000000000000000000000081526004016114ba90612b3e565b60405180910390fd5b80600560008573ffffffffffffffffffffffffffffffffffffffff1673ffffffffffffffffffffffffffffffffffffffff16815260200190815260200160002060008473ffffffffffffffffffffffffffffffffffffffff1673ffffffffffffffffffffffffffffffffffffffff16815260200190815260200160002060006101000a81548160ff0219169083151502179055508173ffffffffffffffffffffffffffffffffffffffff168373ffffffffffffffffffffffffffffffffffffffff167f17307eab39ab6107e8899845ad3d59bd9653f200f220920489ca2b5937696c31836040516115b49190611ed3565b60405180910390a3505050565b6115cc84848461103b565b6115d884848484611905565b611617576040517f08c379a000000000000000000000000000000000000000000000000000000000815260040161160e90612bd0565b60405180910390fd5b50505050565b6060600961164a7f000000000000000000000000000000000000000000000000000000000000000061166f565b60405160200161165b929190612cae565b604051602081830303815290604052905090565b60606000600161167e84611a8c565b01905060008167ffffffffffffffff81111561169d5761169c6121eb565b5b6040519080825280601f01601f1916602001820160405280156116cf5781602001600182028036833780820191505090505b509050600082602001820190505b600115611732578080600190039150507f3031323334353637383961626364656600000000000000000000000000000000600a86061a8153600a858161172657611725612cf0565b5b049450600085036116dd575b819350505050919050565b60008073ffffffffffffffffffffffffffffffffffffffff1661175f83611334565b73ffffffffffffffffffffffffffffffffffffffff1614159050919050565b600181111561189e57600073ffffffffffffffffffffffffffffffffffffffff168473ffffffffffffffffffffffffffffffffffffffff16146118125780600360008673ffffffffffffffffffffffffffffffffffffffff1673ffffffffffffffffffffffffffffffffffffffff168152602001908152602001600020600082825461180a9190612d1f565b925050819055505b600073ffffffffffffffffffffffffffffffffffffffff168373ffffffffffffffffffffffffffffffffffffffff161461189d5780600360008573ffffffffffffffffffffffffffffffffffffffff1673ffffffffffffffffffffffffffffffffffffffff16815260200190815260200160002060008282546118959190612762565b925050819055505b5b50505050565b50505050565b6118b48383611bdf565b6118c16000848484611905565b611900576040517f08c379a00000000000000000000000000000000000000000000000000000000081526004016118f790612bd0565b60405180910390fd5b505050565b60006119268473ffffffffffffffffffffffffffffffffffffffff16611dfc565b15611a7f578373ffffffffffffffffffffffffffffffffffffffff1663150b7a0261194f610ee5565b8786866040518563ffffffff1660e01b81526004016119719493929190612da8565b6020604051808303816000875af19250505080156119ad57506040513d601f19601f820116820180604052508101906119aa9190612e09565b60015b611a2f573d80600081146119dd576040519150601f19603f3d011682016040523d82523d6000602084013e6119e2565b606091505b506000815103611a27576040517f08c379a0000000000000000000000000000000000000000000000000000000008152600401611a1e90612bd0565b60405180910390fd5b805181602001fd5b63150b7a0260e01b7bffffffffffffffffffffffffffffffffffffffffffffffffffffffff1916817bffffffffffffffffffffffffffffffffffffffffffffffffffffffff191614915050611a84565b600190505b949350505050565b600080600090507a184f03e93ff9f4daa797ed6e38ed64bf6a1f0100000000000000008310611aea577a184f03e93ff9f4daa797ed6e38ed64bf6a1f0100000000000000008381611ae057611adf612cf0565b5b0492506040810190505b6d04ee2d6d415b85acef81000000008310611b27576d04ee2d6d415b85acef81000000008381611b1d57611b1c612cf0565b5b0492506020810190505b662386f26fc100008310611b5657662386f26fc100008381611b4c57611b4b612cf0565b5b0492506010810190505b6305f5e1008310611b7f576305f5e1008381611b7557611b74612cf0565b5b0492506008810190505b6127108310611ba4576127108381611b9a57611b99612cf0565b5b0492506004810190505b60648310611bc75760648381611bbd57611bbc612cf0565b5b0492506002810190505b600a8310611bd6576001810190505b80915050919050565b600073ffffffffffffffffffffffffffffffffffffffff168273ffffffffffffffffffffffffffffffffffffffff1603611c4e576040517f08c379a0000000000000000000000000000000000000000000000000000000008152600401611c4590612e82565b60405180910390fd5b611c578161173d565b15611c97576040517f08c379a0000000000000000000000000000000000000000000000000000000008152600401611c8e90612eee565b60405180910390fd5b611ca560008383600161177e565b611cae8161173d565b15611cee576040517f08c379a0000000000000000000000000000000000000000000000000000000008152600401611ce590612eee565b60405180910390fd5b6001600360008473ffffffffffffffffffffffffffffffffffffffff1673ffffffffffffffffffffffffffffffffffffffff16815260200190815260200160002060008282540192505081905550816002600083815260200190815260200160002060006101000a81548173ffffffffffffffffffffffffffffffffffffffff021916908373ffffffffffffffffffffffffffffffffffffffff160217905550808273ffffffffffffffffffffffffffffffffffffffff16600073ffffffffffffffffffffffffffffffffffffffff167fddf252ad1be2c89b69c2b068fc378daa952ba7f163c4a11628f55a4df523b3ef60405160405180910390a4611df86000838360016118a4565b5050565b6000808273ffffffffffffffffffffffffffffffffffffffff163b119050919050565b6000604051905090565b600080fd5b600080fd5b60007fffffffff0000000000000000000000000000000000000000000000000000000082169050919050565b611e6881611e33565b8114611e7357600080fd5b50565b600081359050611e8581611e5f565b92915050565b600060208284031215611ea157611ea0611e29565b5b6000611eaf84828501611e76565b91505092915050565b60008115159050919050565b611ecd81611eb8565b82525050565b6000602082019050611ee86000830184611ec4565b92915050565b600081519050919050565b600082825260208201905092915050565b60005b83811015611f28578082015181840152602081019050611f0d565b60008484015250505050565b6000601f19601f8301169050919050565b6000611f5082611eee565b611f5a8185611ef9565b9350611f6a818560208601611f0a565b611f7381611f34565b840191505092915050565b60006020820190508181036000830152611f988184611f45565b905092915050565b6000819050919050565b611fb381611fa0565b8114611fbe57600080fd5b50565b600081359050611fd081611faa565b92915050565b600060208284031215611fec57611feb611e29565b5b6000611ffa84828501611fc1565b91505092915050565b600073ffffffffffffffffffffffffffffffffffffffff82169050919050565b600061202e82612003565b9050919050565b61203e81612023565b82525050565b60006020820190506120596000830184612035565b92915050565b61206881611fa0565b82525050565b6000602082019050612083600083018461205f565b92915050565b61209281612023565b811461209d57600080fd5b50565b6000813590506120af81612089565b92915050565b600080604083850312156120cc576120cb611e29565b5b60006120da858286016120a0565b92505060206120eb85828601611fc1565b9150509250929050565b60008060006060848603121561210e5761210d611e29565b5b600061211c868287016120a0565b935050602061212d868287016120a0565b925050604061213e86828701611fc1565b9150509250925092565b60006020828403121561215e5761215d611e29565b5b600061216c848285016120a0565b91505092915050565b61217e81611eb8565b811461218957600080fd5b50565b60008135905061219b81612175565b92915050565b600080604083850312156121b8576121b7611e29565b5b60006121c6858286016120a0565b92505060206121d78582860161218c565b9150509250929050565b600080fd5b600080fd5b7f4e487b7100000000000000000000000000000000000000000000000000000000600052604160045260246000fd5b61222382611f34565b810181811067ffffffffffffffff82111715612242576122416121eb565b5b80604052505050565b6000612255611e1f565b9050612261828261221a565b919050565b600067ffffffffffffffff821115612281576122806121eb565b5b61228a82611f34565b9050602081019050919050565b82818337600083830152505050565b60006122b96122b484612266565b61224b565b9050828152602081018484840111156122d5576122d46121e6565b5b6122e0848285612297565b509392505050565b600082601f8301126122fd576122fc6121e1565b5b813561230d8482602086016122a6565b91505092915050565b600080600080608085870312156123305761232f611e29565b5b600061233e878288016120a0565b945050602061234f878288016120a0565b935050604061236087828801611fc1565b925050606085013567ffffffffffffffff81111561238157612380611e2e565b5b61238d878288016122e8565b91505092959194509250565b600080604083850312156123b0576123af611e29565b5b60006123be858286016120a0565b92505060206123cf858286016120a0565b9150509250929050565b7f4e487b7100000000000000000000000000000000000000000000000000000000600052602260045260246000fd5b6000600282049050600182168061242057607f821691505b602082108103612433576124326123d9565b5b50919050565b7f4552433732313a20617070726f76616c20746f2063757272656e74206f776e6560008201527f7200000000000000000000000000000000000000000000000000000000000000602082015250565b6000612495602183611ef9565b91506124a082612439565b604082019050919050565b600060208201905081810360008301526124c481612488565b9050919050565b7f4552433732313a20617070726f76652063616c6c6572206973206e6f7420746f60008201527f6b656e206f776e6572206f7220617070726f76656420666f7220616c6c000000602082015250565b6000612527603d83611ef9565b9150612532826124cb565b604082019050919050565b600060208201905081810360008301526125568161251a565b9050919050565b7f4552433732313a2063616c6c6572206973206e6f7420746f6b656e206f776e6560008201527f72206f7220617070726f76656400000000000000000000000000000000000000602082015250565b60006125b9602d83611ef9565b91506125c48261255d565b604082019050919050565b600060208201905081810360008301526125e8816125ac565b9050919050565b7f4552433732313a20696e76616c696420746f6b656e2049440000000000000000600082015250565b6000612625601883611ef9565b9150612630826125ef565b602082019050919050565b6000602082019050818103600083015261265481612618565b9050919050565b7f4576656e74206973206e6f74207075626c697368656400000000000000000000600082015250565b6000612691601683611ef9565b915061269c8261265b565b602082019050919050565b600060208201905081810360008301526126c081612684565b9050919050565b7f41646472657373206e6f742077686974656c6973746564000000000000000000600082015250565b60006126fd601783611ef9565b9150612708826126c7565b602082019050919050565b6000602082019050818103600083015261272c816126f0565b9050919050565b7f4e487b7100000000000000000000000000000000000000000000000000000000600052601160045260246000fd5b600061276d82611fa0565b915061277883611fa0565b92508282019050808211156127905761278f612733565b5b92915050565b60006127a182611fa0565b91507fffffffffffffffffffffffffffffffffffffffffffffffffffffffffffffffff82036127d3576127d2612733565b5b600182019050919050565b7f4552433732313a2061646472657373207a65726f206973206e6f74206120766160008201527f6c6964206f776e65720000000000000000000000000000000000000000000000602082015250565b600061283a602983611ef9565b9150612845826127de565b604082019050919050565b600060208201905081810360008301526128698161282d565b9050919050565b600081905092915050565b600061288682611eee565b6128908185612870565b93506128a0818560208601611f0a565b80840191505092915050565b60006128b8828561287b565b91506128c4828461287b565b91508190509392505050565b7f4f776e61626c653a206e6577206f776e657220697320746865207a65726f206160008201527f6464726573730000000000000000000000000000000000000000000000000000602082015250565b600061292c602683611ef9565b9150612937826128d0565b604082019050919050565b6000602082019050818103600083015261295b8161291f565b9050919050565b7f4f776e61626c653a2063616c6c6572206973206e6f7420746865206f776e6572600082015250565b6000612998602083611ef9565b91506129a382612962565b602082019050919050565b600060208201905081810360008301526129c78161298b565b9050919050565b7f4552433732313a207472616e736665722066726f6d20696e636f72726563742060008201527f6f776e6572000000000000000000000000000000000000000000000000000000602082015250565b6000612a2a602583611ef9565b9150612a35826129ce565b604082019050919050565b60006020820190508181036000830152612a5981612a1d565b9050919050565b7f4552433732313a207472616e7366657220746f20746865207a65726f2061646460008201527f7265737300000000000000000000000000000000000000000000000000000000602082015250565b6000612abc602483611ef9565b9150612ac782612a60565b604082019050919050565b60006020820190508181036000830152612aeb81612aaf565b9050919050565b7f4552433732313a20617070726f766520746f2063616c6c657200000000000000600082015250565b6000612b28601983611ef9565b9150612b3382612af2565b602082019050919050565b60006020820190508181036000830152612b5781612b1b565b9050919050565b7f4552433732313a207472616e7366657220746f206e6f6e20455243373231526560008201527f63656976657220696d706c656d656e7465720000000000000000000000000000602082015250565b6000612bba603283611ef9565b9150612bc582612b5e565b604082019050919050565b60006020820190508181036000830152612be981612bad565b9050919050565b60008190508160005260206000209050919050565b60008154612c1281612408565b612c1c8186612870565b94506001821660008114612c375760018114612c4c57612c7f565b60ff1983168652811515820286019350612c7f565b612c5585612bf0565b60005b83811015612c7757815481890152600182019150602081019050612c58565b838801955050505b50505092915050565b7f2f00000000000000000000000000000000000000000000000000000000000000815250565b6000612cba8285612c05565b9150612cc582612c88565b600182019150612cd5828461287b565b9150612ce082612c88565b6001820191508190509392505050565b7f4e487b7100000000000000000000000000000000000000000000000000000000600052601260045260246000fd5b6000612d2a82611fa0565b9150612d3583611fa0565b9250828203905081811115612d4d57612d4c612733565b5b92915050565b600081519050919050565b600082825260208201905092915050565b6000612d7a82612d53565b612d848185612d5e565b9350612d94818560208601611f0a565b612d9d81611f34565b840191505092915050565b6000608082019050612dbd6000830187612035565b612dca6020830186612035565b612dd7604083018561205f565b8181036060830152612de98184612d6f565b905095945050505050565b600081519050612e0381611e5f565b92915050565b600060208284031215612e1f57612e1e611e29565b5b6000612e2d84828501612df4565b91505092915050565b7f4552433732313a206d696e7420746f20746865207a65726f2061646472657373600082015250565b6000612e6c602083611ef9565b9150612e7782612e36565b602082019050919050565b60006020820190508181036000830152612e9b81612e5f565b9050919050565b7f4552433732313a20746f6b656e20616c7265616479206d696e74656400000000600082015250565b6000612ed8601c83611ef9565b9150612ee382612ea2565b602082019050919050565b60006020820190508181036000830152612f0781612ecb565b905091905056fea26469706673582212206e8050900178d18853a870d1a6f8fa0b6ffc578a6555e152abd62f9f37e8d9b064736f6c63430008110033",
  "linkReferences": {},
  "deployedLinkReferences": {}
}