{
  "_format": "hh-sol-artifact-1",
  "contractName": "WhitelistNFT",
  "sourceName": "contracts/VKEvent.sol",
  "abi": [
    {
      "inputs": [
        {
          "internalType": "string",
          "name": "name",
          "type": "string"
        },
        {
          "internalType": "string",
          "name": "symbol",
          "type": "string"
        },
        {
          "internalType": "uint256",
          "name": "_eventId",
          "type": "uint256"
        },
        {
          "internalType": "string",
          "name": "_baseUri",
          "type": "string"
        },
        {
          "internalType": "address[]",
          "name": "_addresses",
          "type": "address[]"
        },
        {
          "internalType": "bool",
          "name": "_published",
          "type": "bool"
        }
      ],
      "stateMutability": "nonpayable",
      "type": "constructor"
    },
    {
      "anonymous": false,
      "inputs": [
        {
          "indexed": true,
          "internalType": "address",
          "name": "owner",
          "type": "address"
        },
        {
          "indexed": true,
          "internalType": "address",
          "name": "approved",
          "type": "address"
        },
        {
          "indexed": true,
          "internalType": "uint256",
          "name": "tokenId",
          "type": "uint256"
        }
      ],
      "name": "Approval",
      "type": "event"
    },
    {
      "anonymous": false,
      "inputs": [
        {
          "indexed": true,
          "internalType": "address",
          "name": "owner",
          "type": "address"
        },
        {
          "indexed": true,
          "internalType": "address",
          "name": "operator",
          "type": "address"
        },
        {
          "indexed": false,
          "internalType": "bool",
          "name": "approved",
          "type": "bool"
        }
      ],
      "name": "ApprovalForAll",
      "type": "event"
    },
    {
      "anonymous": false,
      "inputs": [
        {
          "indexed": true,
          "internalType": "address",
          "name": "previousOwner",
          "type": "address"
        },
        {
          "indexed": true,
          "internalType": "address",
          "name": "newOwner",
          "type": "address"
        }
      ],
      "name": "OwnershipTransferred",
      "type": "event"
    },
    {
      "anonymous": false,
      "inputs": [
        {
          "indexed": true,
          "internalType": "address",
          "name": "from",
          "type": "address"
        },
        {
          "indexed": true,
          "internalType": "address",
          "name": "to",
          "type": "address"
        },
        {
          "indexed": true,
          "internalType": "uint256",
          "name": "tokenId",
          "type": "uint256"
        }
      ],
      "name": "Transfer",
      "type": "event"
    },
    {
      "inputs": [
        {
          "internalType": "address",
          "name": "to",
          "type": "address"
        },
        {
          "internalType": "uint256",
          "name": "tokenId",
          "type": "uint256"
        }
      ],
      "name": "approve",
      "outputs": [],
      "stateMutability": "nonpayable",
      "type": "function"
    },
    {
      "inputs": [
        {
          "internalType": "address",
          "name": "owner",
          "type": "address"
        }
      ],
      "name": "balanceOf",
      "outputs": [
        {
          "internalType": "uint256",
          "name": "",
          "type": "uint256"
        }
      ],
      "stateMutability": "view",
      "type": "function"
    },
    {
      "inputs": [],
      "name": "baseURI",
      "outputs": [
        {
          "internalType": "string",
          "name": "",
          "type": "string"
        }
      ],
      "stateMutability": "view",
      "type": "function"
    },
    {
      "inputs": [],
      "name": "claimNFT",
      "outputs": [],
      "stateMutability": "nonpayable",
      "type": "function"
    },
    {
      "inputs": [],
      "name": "currentSupply",
      "outputs": [
        {
          "internalType": "uint256",
          "name": "",
          "type": "uint256"
        }
      ],
      "stateMutability": "view",
      "type": "function"
    },
    {
      "inputs": [],
      "name": "eventId",
      "outputs": [
        {
          "internalType": "uint256",
          "name": "",
          "type": "uint256"
        }
      ],
      "stateMutability": "view",
      "type": "function"
    },
    {
      "inputs": [
        {
          "internalType": "uint256",
          "name": "tokenId",
          "type": "uint256"
        }
      ],
      "name": "getApproved",
      "outputs": [
        {
          "internalType": "address",
          "name": "",
          "type": "address"
        }
      ],
      "stateMutability": "view",
      "type": "function"
    },
    {
      "inputs": [
        {
          "internalType": "uint256",
          "name": "tokenId",
          "type": "uint256"
        }
      ],
      "name": "getTokenURI",
      "outputs": [
        {
          "internalType": "string",
          "name": "",
          "type": "string"
        }
      ],
      "stateMutability": "view",
      "type": "function"
    },
    {
      "inputs": [
        {
          "internalType": "address",
          "name": "owner",
          "type": "address"
        },
        {
          "internalType": "address",
          "name": "operator",
          "type": "address"
        }
      ],
      "name": "isApprovedForAll",
      "outputs": [
        {
          "internalType": "bool",
          "name": "",
          "type": "bool"
        }
      ],
      "stateMutability": "view",
      "type": "function"
    },
    {
      "inputs": [],
      "name": "name",
      "outputs": [
        {
          "internalType": "string",
          "name": "",
          "type": "string"
        }
      ],
      "stateMutability": "view",
      "type": "function"
    },
    {
      "inputs": [],
      "name": "owner",
      "outputs": [
        {
          "internalType": "address",
          "name": "",
          "type": "address"
        }
      ],
      "stateMutability": "view",
      "type": "function"
    },
    {
      "inputs": [
        {
          "internalType": "uint256",
          "name": "tokenId",
          "type": "uint256"
        }
      ],
      "name": "ownerOf",
      "outputs": [
        {
          "internalType": "address",
          "name": "",
          "type": "address"
        }
      ],
      "stateMutability": "view",
      "type": "function"
    },
    {
      "inputs": [],
      "name": "publish",
      "outputs": [],
      "stateMutability": "nonpayable",
      "type": "function"
    },
    {
      "inputs": [],
      "name": "published",
      "outputs": [
        {
          "internalType": "bool",
          "name": "",
          "type": "bool"
        }
      ],
      "stateMutability": "view",
      "type": "function"
    },
    {
      "inputs": [],
      "name": "renounceOwnership",
      "outputs": [],
      "stateMutability": "nonpayable",
      "type": "function"
    },
    {
      "inputs": [
        {
          "internalType": "address",
          "name": "from",
          "type": "address"
        },
        {
          "internalType": "address",
          "name": "to",
          "type": "address"
        },
        {
          "internalType": "uint256",
          "name": "tokenId",
          "type": "uint256"
        }
      ],
      "name": "safeTransferFrom",
      "outputs": [],
      "stateMutability": "nonpayable",
      "type": "function"
    },
    {
      "inputs": [
        {
          "internalType": "address",
          "name": "from",
          "type": "address"
        },
        {
          "internalType": "address",
          "name": "to",
          "type": "address"
        },
        {
          "internalType": "uint256",
          "name": "tokenId",
          "type": "uint256"
        },
        {
          "internalType": "bytes",
          "name": "data",
          "type": "bytes"
        }
      ],
      "name": "safeTransferFrom",
      "outputs": [],
      "stateMutability": "nonpayable",
      "type": "function"
    },
    {
      "inputs": [
        {
          "internalType": "address",
          "name": "operator",
          "type": "address"
        },
        {
          "internalType": "bool",
          "name": "approved",
          "type": "bool"
        }
      ],
      "name": "setApprovalForAll",
      "outputs": [],
      "stateMutability": "nonpayable",
      "type": "function"
    },
    {
      "inputs": [
        {
          "internalType": "bytes4",
          "name": "interfaceId",
          "type": "bytes4"
        }
      ],
      "name": "supportsInterface",
      "outputs": [
        {
          "internalType": "bool",
          "name": "",
          "type": "bool"
        }
      ],
      "stateMutability": "view",
      "type": "function"
    },
    {
      "inputs": [],
      "name": "symbol",
      "outputs": [
        {
          "internalType": "string",
          "name": "",
          "type": "string"
        }
      ],
      "stateMutability": "view",
      "type": "function"
    },
    {
      "inputs": [
        {
          "internalType": "uint256",
          "name": "tokenId",
          "type": "uint256"
        }
      ],
      "name": "tokenURI",
      "outputs": [
        {
          "internalType": "string",
          "name": "",
          "type": "string"
        }
      ],
      "stateMutability": "view",
      "type": "function"
    },
    {
      "inputs": [
        {
          "internalType": "address",
          "name": "from",
          "type": "address"
        },
        {
          "internalType": "address",
          "name": "to",
          "type": "address"
        },
        {
          "internalType": "uint256",
          "name": "tokenId",
          "type": "uint256"
        }
      ],
      "name": "transferFrom",
      "outputs": [],
      "stateMutability": "nonpayable",
      "type": "function"
    },
    {
      "inputs": [
        {
          "internalType": "address",
          "name": "newOwner",
          "type": "address"
        }
      ],
      "name": "transferOwnership",
      "outputs": [],
      "stateMutability": "nonpayable",
      "type": "function"
    },
    {
      "inputs": [
        {
          "internalType": "address",
          "name": "",
          "type": "address"
        }
      ],
      "name": "whitelist",
      "outputs": [
        {
          "internalType": "bool",
          "name": "",
          "type": "bool"
        }
      ],
      "stateMutability": "view",
      "type": "function"
    }
  ],
  "bytecode": "0x60a060405260006007553480156200001657600080fd5b5060405162003ce638038062003ce683398181016040528101906200003c9190620006a3565b858581600090816200004f9190620009fc565b508060019081620000619190620009fc565b5050506200008462000078620001a260201b60201c565b620001aa60201b60201c565b6000825111620000cb576040517f08c379a0000000000000000000000000000000000000000000000000000000008152600401620000c29062000b44565b60405180910390fd5b83608081815250508260099081620000e49190620009fc565b5060005b82518110156200017d576001600860008584815181106200010e576200010d62000b66565b5b602002602001015173ffffffffffffffffffffffffffffffffffffffff1673ffffffffffffffffffffffffffffffffffffffff16815260200190815260200160002060006101000a81548160ff0219169083151502179055508080620001749062000bc4565b915050620000e8565b5080156200019657620001956200027060201b60201c565b5b50505050505062000c83565b600033905090565b6000600660009054906101000a900473ffffffffffffffffffffffffffffffffffffffff16905081600660006101000a81548173ffffffffffffffffffffffffffffffffffffffff021916908373ffffffffffffffffffffffffffffffffffffffff1602179055508173ffffffffffffffffffffffffffffffffffffffff168173ffffffffffffffffffffffffffffffffffffffff167f8be0079c531659141344cd1fd0a4f28419497f9722a3daafe3b4186f6b6457e060405160405180910390a35050565b620002806200029d60201b60201c565b6001600a60006101000a81548160ff021916908315150217905550565b620002ad620001a260201b60201c565b73ffffffffffffffffffffffffffffffffffffffff16620002d36200032e60201b60201c565b73ffffffffffffffffffffffffffffffffffffffff16146200032c576040517f08c379a0000000000000000000000000000000000000000000000000000000008152600401620003239062000c61565b60405180910390fd5b565b6000600660009054906101000a900473ffffffffffffffffffffffffffffffffffffffff16905090565b6000604051905090565b600080fd5b600080fd5b600080fd5b600080fd5b6000601f19601f8301169050919050565b7f4e487b7100000000000000000000000000000000000000000000000000000000600052604160045260246000fd5b620003c18262000376565b810181811067ffffffffffffffff82111715620003e357620003e262000387565b5b80604052505050565b6000620003f862000358565b9050620004068282620003b6565b919050565b600067ffffffffffffffff82111562000429576200042862000387565b5b620004348262000376565b9050602081019050919050565b60005b838110156200046157808201518184015260208101905062000444565b60008484015250505050565b6000620004846200047e846200040b565b620003ec565b905082815260208101848484011115620004a357620004a262000371565b5b620004b084828562000441565b509392505050565b600082601f830112620004d057620004cf6200036c565b5b8151620004e28482602086016200046d565b91505092915050565b6000819050919050565b6200050081620004eb565b81146200050c57600080fd5b50565b6000815190506200052081620004f5565b92915050565b600067ffffffffffffffff82111562000544576200054362000387565b5b602082029050602081019050919050565b600080fd5b600073ffffffffffffffffffffffffffffffffffffffff82169050919050565b600062000587826200055a565b9050919050565b62000599816200057a565b8114620005a557600080fd5b50565b600081519050620005b9816200058e565b92915050565b6000620005d6620005d08462000526565b620003ec565b90508083825260208201905060208402830185811115620005fc57620005fb62000555565b5b835b81811015620006295780620006148882620005a8565b845260208401935050602081019050620005fe565b5050509392505050565b600082601f8301126200064b576200064a6200036c565b5b81516200065d848260208601620005bf565b91505092915050565b60008115159050919050565b6200067d8162000666565b81146200068957600080fd5b50565b6000815190506200069d8162000672565b92915050565b60008060008060008060c08789031215620006c357620006c262000362565b5b600087015167ffffffffffffffff811115620006e457620006e362000367565b5b620006f289828a01620004b8565b965050602087015167ffffffffffffffff81111562000716576200071562000367565b5b6200072489828a01620004b8565b95505060406200073789828a016200050f565b945050606087015167ffffffffffffffff8111156200075b576200075a62000367565b5b6200076989828a01620004b8565b935050608087015167ffffffffffffffff8111156200078d576200078c62000367565b5b6200079b89828a0162000633565b92505060a0620007ae89828a016200068c565b9150509295509295509295565b600081519050919050565b7f4e487b7100000000000000000000000000000000000000000000000000000000600052602260045260246000fd5b600060028204905060018216806200080e57607f821691505b602082108103620008245762000823620007c6565b5b50919050565b60008190508160005260206000209050919050565b60006020601f8301049050919050565b600082821b905092915050565b6000600883026200088e7fffffffffffffffffffffffffffffffffffffffffffffffffffffffffffffffff826200084f565b6200089a86836200084f565b95508019841693508086168417925050509392505050565b6000819050919050565b6000620008dd620008d7620008d184620004eb565b620008b2565b620004eb565b9050919050565b6000819050919050565b620008f983620008bc565b620009116200090882620008e4565b8484546200085c565b825550505050565b600090565b6200092862000919565b62000935818484620008ee565b505050565b5b818110156200095d57620009516000826200091e565b6001810190506200093b565b5050565b601f821115620009ac5762000976816200082a565b62000981846200083f565b8101602085101562000991578190505b620009a9620009a0856200083f565b8301826200093a565b50505b505050565b600082821c905092915050565b6000620009d160001984600802620009b1565b1980831691505092915050565b6000620009ec8383620009be565b9150826002028217905092915050565b62000a0782620007bb565b67ffffffffffffffff81111562000a235762000a2262000387565b5b62000a2f8254620007f5565b62000a3c82828562000961565b600060209050601f83116001811462000a74576000841562000a5f578287015190505b62000a6b8582620009de565b86555062000adb565b601f19841662000a84866200082a565b60005b8281101562000aae5784890151825560018201915060208501945060208101905062000a87565b8683101562000ace578489015162000aca601f891682620009be565b8355505b6001600288020188555050505b505050505050565b600082825260208201905092915050565b7f5f6164647265737365732073686f756c64206e6f7420626520656d7074790000600082015250565b600062000b2c601e8362000ae3565b915062000b398262000af4565b602082019050919050565b6000602082019050818103600083015262000b5f8162000b1d565b9050919050565b7f4e487b7100000000000000000000000000000000000000000000000000000000600052603260045260246000fd5b7f4e487b7100000000000000000000000000000000000000000000000000000000600052601160045260246000fd5b600062000bd182620004eb565b91507fffffffffffffffffffffffffffffffffffffffffffffffffffffffffffffffff820362000c065762000c0562000b95565b5b600182019050919050565b7f4f776e61626c653a2063616c6c6572206973206e6f7420746865206f776e6572600082015250565b600062000c4960208362000ae3565b915062000c568262000c11565b602082019050919050565b6000602082019050818103600083015262000c7c8162000c3a565b9050919050565b60805161304062000ca66000396000818161065601526113e001526130406000f3fe608060405234801561001057600080fd5b50600436106101585760003560e01c806370a08231116100c35780639b19251a1161007c5780639b19251a14610391578063a22cb465146103c1578063b88d4fde146103dd578063c87b56dd146103f9578063e985e9c514610429578063f2fde38b1461045957610158565b806370a08231146102df578063715018a61461030f578063771282f6146103195780638d4d2b0c146103375780638da5cb5b1461035557806395d89b411461037357610158565b806323b872dd1161011557806323b872dd1461021f5780633bb3a24d1461023b57806342842e0e1461026b5780636352211e14610287578063672756ad146102b75780636c0360eb146102c157610158565b806301ffc9a71461015d57806306fdde031461018d578063075d4782146101ab578063081812fc146101b5578063089cdd0c146101e5578063095ea7b314610203575b600080fd5b61017760048036038101906101729190611f2e565b610475565b6040516101849190611f76565b60405180910390f35b610195610557565b6040516101a29190612021565b60405180910390f35b6101b36105e9565b005b6101cf60048036038101906101ca9190612079565b61060e565b6040516101dc91906120e7565b60405180910390f35b6101ed610654565b6040516101fa9190612111565b60405180910390f35b61021d60048036038101906102189190612158565b610678565b005b61023960048036038101906102349190612198565b61078f565b005b61025560048036038101906102509190612079565b6107ef565b6040516102629190612021565b60405180910390f35b61028560048036038101906102809190612198565b610857565b005b6102a1600480360381019061029c9190612079565b610877565b6040516102ae91906120e7565b60405180910390f35b6102bf6108fd565b005b6102c9610a10565b6040516102d69190612021565b60405180910390f35b6102f960048036038101906102f491906121eb565b610a9e565b6040516103069190612111565b60405180910390f35b610317610b55565b005b610321610b69565b60405161032e9190612111565b60405180910390f35b61033f610b6f565b60405161034c9190611f76565b60405180910390f35b61035d610b82565b60405161036a91906120e7565b60405180910390f35b61037b610bac565b6040516103889190612021565b60405180910390f35b6103ab60048036038101906103a691906121eb565b610c3e565b6040516103b89190611f76565b60405180910390f35b6103db60048036038101906103d69190612244565b610c5e565b005b6103f760048036038101906103f291906123b9565b610c74565b005b610413600480360381019061040e9190612079565b610cd6565b6040516104209190612021565b60405180910390f35b610443600480360381019061043e919061243c565b610d3e565b6040516104509190611f76565b60405180910390f35b610473600480360381019061046e91906121eb565b610dd2565b005b60007f80ac58cd000000000000000000000000000000000000000000000000000000007bffffffffffffffffffffffffffffffffffffffffffffffffffffffff1916827bffffffffffffffffffffffffffffffffffffffffffffffffffffffff1916148061054057507f5b5e139f000000000000000000000000000000000000000000000000000000007bffffffffffffffffffffffffffffffffffffffffffffffffffffffff1916827bffffffffffffffffffffffffffffffffffffffffffffffffffffffff1916145b80610550575061054f82610e55565b5b9050919050565b606060008054610566906124ab565b80601f0160208091040260200160405190810160405280929190818152602001828054610592906124ab565b80156105df5780601f106105b4576101008083540402835291602001916105df565b820191906000526020600020905b8154815290600101906020018083116105c257829003601f168201915b5050505050905090565b6105f1610ebf565b6001600a60006101000a81548160ff021916908315150217905550565b600061061982610f3d565b6004600083815260200190815260200160002060009054906101000a900473ffffffffffffffffffffffffffffffffffffffff169050919050565b7f000000000000000000000000000000000000000000000000000000000000000081565b600061068382610877565b90508073ffffffffffffffffffffffffffffffffffffffff168373ffffffffffffffffffffffffffffffffffffffff16036106f3576040517f08c379a00000000000000000000000000000000000000000000000000000000081526004016106ea9061254e565b60405180910390fd5b8073ffffffffffffffffffffffffffffffffffffffff16610712610f88565b73ffffffffffffffffffffffffffffffffffffffff16148061074157506107408161073b610f88565b610d3e565b5b610780576040517f08c379a0000000000000000000000000000000000000000000000000000000008152600401610777906125e0565b60405180910390fd5b61078a8383610f90565b505050565b6107a061079a610f88565b82611049565b6107df576040517f08c379a00000000000000000000000000000000000000000000000000000000081526004016107d690612672565b60405180910390fd5b6107ea8383836110de565b505050565b60606107fa82610f3d565b60006108046113d7565b90506000815111610824576040518060200160405280600081525061084f565b8061082e84611429565b60405160200161083f9291906126f4565b6040516020818303038152906040525b915050919050565b61087283838360405180602001604052806000815250610c74565b505050565b600080610883836114f7565b9050600073ffffffffffffffffffffffffffffffffffffffff168173ffffffffffffffffffffffffffffffffffffffff16036108f4576040517f08c379a00000000000000000000000000000000000000000000000000000000081526004016108eb90612773565b60405180910390fd5b80915050919050565b600a60009054906101000a900460ff1661094c576040517f08c379a0000000000000000000000000000000000000000000000000000000008152600401610943906127df565b60405180910390fd5b600860003373ffffffffffffffffffffffffffffffffffffffff1673ffffffffffffffffffffffffffffffffffffffff16815260200190815260200160002060009054906101000a900460ff166109d8576040517f08c379a00000000000000000000000000000000000000000000000000000000081526004016109cf9061284b565b60405180910390fd5b600060016007546109e9919061289a565b90506109f53382611534565b60076000815480929190610a08906128ce565b919050555050565b60098054610a1d906124ab565b80601f0160208091040260200160405190810160405280929190818152602001828054610a49906124ab565b8015610a965780601f10610a6b57610100808354040283529160200191610a96565b820191906000526020600020905b815481529060010190602001808311610a7957829003601f168201915b505050505081565b60008073ffffffffffffffffffffffffffffffffffffffff168273ffffffffffffffffffffffffffffffffffffffff1603610b0e576040517f08c379a0000000000000000000000000000000000000000000000000000000008152600401610b0590612988565b60405180910390fd5b600360008373ffffffffffffffffffffffffffffffffffffffff1673ffffffffffffffffffffffffffffffffffffffff168152602001908152602001600020549050919050565b610b5d610ebf565b610b676000611552565b565b60075481565b600a60009054906101000a900460ff1681565b6000600660009054906101000a900473ffffffffffffffffffffffffffffffffffffffff16905090565b606060018054610bbb906124ab565b80601f0160208091040260200160405190810160405280929190818152602001828054610be7906124ab565b8015610c345780601f10610c0957610100808354040283529160200191610c34565b820191906000526020600020905b815481529060010190602001808311610c1757829003601f168201915b5050505050905090565b60086020528060005260406000206000915054906101000a900460ff1681565b610c70610c69610f88565b8383611618565b5050565b610c85610c7f610f88565b83611049565b610cc4576040517f08c379a0000000000000000000000000000000000000000000000000000000008152600401610cbb90612672565b60405180910390fd5b610cd084848484611784565b50505050565b6060610ce182610f3d565b6000610ceb6113d7565b90506000815111610d0b5760405180602001604052806000815250610d36565b80610d1584611429565b604051602001610d269291906129a8565b6040516020818303038152906040525b915050919050565b6000600560008473ffffffffffffffffffffffffffffffffffffffff1673ffffffffffffffffffffffffffffffffffffffff16815260200190815260200160002060008373ffffffffffffffffffffffffffffffffffffffff1673ffffffffffffffffffffffffffffffffffffffff16815260200190815260200160002060009054906101000a900460ff16905092915050565b610dda610ebf565b600073ffffffffffffffffffffffffffffffffffffffff168173ffffffffffffffffffffffffffffffffffffffff1603610e49576040517f08c379a0000000000000000000000000000000000000000000000000000000008152600401610e4090612a3e565b60405180910390fd5b610e5281611552565b50565b60007f01ffc9a7000000000000000000000000000000000000000000000000000000007bffffffffffffffffffffffffffffffffffffffffffffffffffffffff1916827bffffffffffffffffffffffffffffffffffffffffffffffffffffffff1916149050919050565b610ec7610f88565b73ffffffffffffffffffffffffffffffffffffffff16610ee5610b82565b73ffffffffffffffffffffffffffffffffffffffff1614610f3b576040517f08c379a0000000000000000000000000000000000000000000000000000000008152600401610f3290612aaa565b60405180910390fd5b565b610f46816117e0565b610f85576040517f08c379a0000000000000000000000000000000000000000000000000000000008152600401610f7c90612773565b60405180910390fd5b50565b600033905090565b816004600083815260200190815260200160002060006101000a81548173ffffffffffffffffffffffffffffffffffffffff021916908373ffffffffffffffffffffffffffffffffffffffff160217905550808273ffffffffffffffffffffffffffffffffffffffff1661100383610877565b73ffffffffffffffffffffffffffffffffffffffff167f8c5be1e5ebec7d5bd14f71427d1e84f3dd0314c0f7b2291e5b200ac8c7c3b92560405160405180910390a45050565b60008061105583610877565b90508073ffffffffffffffffffffffffffffffffffffffff168473ffffffffffffffffffffffffffffffffffffffff16148061109757506110968185610d3e565b5b806110d557508373ffffffffffffffffffffffffffffffffffffffff166110bd8461060e565b73ffffffffffffffffffffffffffffffffffffffff16145b91505092915050565b8273ffffffffffffffffffffffffffffffffffffffff166110fe82610877565b73ffffffffffffffffffffffffffffffffffffffff1614611154576040517f08c379a000000000000000000000000000000000000000000000000000000000815260040161114b90612b3c565b60405180910390fd5b600073ffffffffffffffffffffffffffffffffffffffff168273ffffffffffffffffffffffffffffffffffffffff16036111c3576040517f08c379a00000000000000000000000000000000000000000000000000000000081526004016111ba90612bce565b60405180910390fd5b6111d08383836001611821565b8273ffffffffffffffffffffffffffffffffffffffff166111f082610877565b73ffffffffffffffffffffffffffffffffffffffff1614611246576040517f08c379a000000000000000000000000000000000000000000000000000000000815260040161123d90612b3c565b60405180910390fd5b6004600082815260200190815260200160002060006101000a81549073ffffffffffffffffffffffffffffffffffffffff02191690556001600360008573ffffffffffffffffffffffffffffffffffffffff1673ffffffffffffffffffffffffffffffffffffffff168152602001908152602001600020600082825403925050819055506001600360008473ffffffffffffffffffffffffffffffffffffffff1673ffffffffffffffffffffffffffffffffffffffff16815260200190815260200160002060008282540192505081905550816002600083815260200190815260200160002060006101000a81548173ffffffffffffffffffffffffffffffffffffffff021916908373ffffffffffffffffffffffffffffffffffffffff160217905550808273ffffffffffffffffffffffffffffffffffffffff168473ffffffffffffffffffffffffffffffffffffffff167fddf252ad1be2c89b69c2b068fc378daa952ba7f163c4a11628f55a4df523b3ef60405160405180910390a46113d28383836001611947565b505050565b606060096114047f0000000000000000000000000000000000000000000000000000000000000000611429565b604051602001611415929190612cac565b604051602081830303815290604052905090565b6060600060016114388461194d565b01905060008167ffffffffffffffff8111156114575761145661228e565b5b6040519080825280601f01601f1916602001820160405280156114895781602001600182028036833780820191505090505b509050600082602001820190505b6001156114ec578080600190039150507f3031323334353637383961626364656600000000000000000000000000000000600a86061a8153600a85816114e0576114df612cee565b5b04945060008503611497575b819350505050919050565b60006002600083815260200190815260200160002060009054906101000a900473ffffffffffffffffffffffffffffffffffffffff169050919050565b61154e828260405180602001604052806000815250611aa0565b5050565b6000600660009054906101000a900473ffffffffffffffffffffffffffffffffffffffff16905081600660006101000a81548173ffffffffffffffffffffffffffffffffffffffff021916908373ffffffffffffffffffffffffffffffffffffffff1602179055508173ffffffffffffffffffffffffffffffffffffffff168173ffffffffffffffffffffffffffffffffffffffff167f8be0079c531659141344cd1fd0a4f28419497f9722a3daafe3b4186f6b6457e060405160405180910390a35050565b8173ffffffffffffffffffffffffffffffffffffffff168373ffffffffffffffffffffffffffffffffffffffff1603611686576040517f08c379a000000000000000000000000000000000000000000000000000000000815260040161167d90612d69565b60405180910390fd5b80600560008573ffffffffffffffffffffffffffffffffffffffff1673ffffffffffffffffffffffffffffffffffffffff16815260200190815260200160002060008473ffffffffffffffffffffffffffffffffffffffff1673ffffffffffffffffffffffffffffffffffffffff16815260200190815260200160002060006101000a81548160ff0219169083151502179055508173ffffffffffffffffffffffffffffffffffffffff168373ffffffffffffffffffffffffffffffffffffffff167f17307eab39ab6107e8899845ad3d59bd9653f200f220920489ca2b5937696c31836040516117779190611f76565b60405180910390a3505050565b61178f8484846110de565b61179b84848484611afb565b6117da576040517f08c379a00000000000000000000000000000000000000000000000000000000081526004016117d190612dfb565b60405180910390fd5b50505050565b60008073ffffffffffffffffffffffffffffffffffffffff16611802836114f7565b73ffffffffffffffffffffffffffffffffffffffff1614159050919050565b600181111561194157600073ffffffffffffffffffffffffffffffffffffffff168473ffffffffffffffffffffffffffffffffffffffff16146118b55780600360008673ffffffffffffffffffffffffffffffffffffffff1673ffffffffffffffffffffffffffffffffffffffff16815260200190815260200160002060008282546118ad9190612e1b565b925050819055505b600073ffffffffffffffffffffffffffffffffffffffff168373ffffffffffffffffffffffffffffffffffffffff16146119405780600360008573ffffffffffffffffffffffffffffffffffffffff1673ffffffffffffffffffffffffffffffffffffffff1681526020019081526020016000206000828254611938919061289a565b925050819055505b5b50505050565b50505050565b600080600090507a184f03e93ff9f4daa797ed6e38ed64bf6a1f01000000000000000083106119ab577a184f03e93ff9f4daa797ed6e38ed64bf6a1f01000000000000000083816119a1576119a0612cee565b5b0492506040810190505b6d04ee2d6d415b85acef810000000083106119e8576d04ee2d6d415b85acef810000000083816119de576119dd612cee565b5b0492506020810190505b662386f26fc100008310611a1757662386f26fc100008381611a0d57611a0c612cee565b5b0492506010810190505b6305f5e1008310611a40576305f5e1008381611a3657611a35612cee565b5b0492506008810190505b6127108310611a65576127108381611a5b57611a5a612cee565b5b0492506004810190505b60648310611a885760648381611a7e57611a7d612cee565b5b0492506002810190505b600a8310611a97576001810190505b80915050919050565b611aaa8383611c82565b611ab76000848484611afb565b611af6576040517f08c379a0000000000000000000000000000000000000000000000000000000008152600401611aed90612dfb565b60405180910390fd5b505050565b6000611b1c8473ffffffffffffffffffffffffffffffffffffffff16611e9f565b15611c75578373ffffffffffffffffffffffffffffffffffffffff1663150b7a02611b45610f88565b8786866040518563ffffffff1660e01b8152600401611b679493929190612ea4565b6020604051808303816000875af1925050508015611ba357506040513d601f19601f82011682018060405250810190611ba09190612f05565b60015b611c25573d8060008114611bd3576040519150601f19603f3d011682016040523d82523d6000602084013e611bd8565b606091505b506000815103611c1d576040517f08c379a0000000000000000000000000000000000000000000000000000000008152600401611c1490612dfb565b60405180910390fd5b805181602001fd5b63150b7a0260e01b7bffffffffffffffffffffffffffffffffffffffffffffffffffffffff1916817bffffffffffffffffffffffffffffffffffffffffffffffffffffffff191614915050611c7a565b600190505b949350505050565b600073ffffffffffffffffffffffffffffffffffffffff168273ffffffffffffffffffffffffffffffffffffffff1603611cf1576040517f08c379a0000000000000000000000000000000000000000000000000000000008152600401611ce890612f7e565b60405180910390fd5b611cfa816117e0565b15611d3a576040517f08c379a0000000000000000000000000000000000000000000000000000000008152600401611d3190612fea565b60405180910390fd5b611d48600083836001611821565b611d51816117e0565b15611d91576040517f08c379a0000000000000000000000000000000000000000000000000000000008152600401611d8890612fea565b60405180910390fd5b6001600360008473ffffffffffffffffffffffffffffffffffffffff1673ffffffffffffffffffffffffffffffffffffffff16815260200190815260200160002060008282540192505081905550816002600083815260200190815260200160002060006101000a81548173ffffffffffffffffffffffffffffffffffffffff021916908373ffffffffffffffffffffffffffffffffffffffff160217905550808273ffffffffffffffffffffffffffffffffffffffff16600073ffffffffffffffffffffffffffffffffffffffff167fddf252ad1be2c89b69c2b068fc378daa952ba7f163c4a11628f55a4df523b3ef60405160405180910390a4611e9b600083836001611947565b5050565b6000808273ffffffffffffffffffffffffffffffffffffffff163b119050919050565b6000604051905090565b600080fd5b600080fd5b60007fffffffff0000000000000000000000000000000000000000000000000000000082169050919050565b611f0b81611ed6565b8114611f1657600080fd5b50565b600081359050611f2881611f02565b92915050565b600060208284031215611f4457611f43611ecc565b5b6000611f5284828501611f19565b91505092915050565b60008115159050919050565b611f7081611f5b565b82525050565b6000602082019050611f8b6000830184611f67565b92915050565b600081519050919050565b600082825260208201905092915050565b60005b83811015611fcb578082015181840152602081019050611fb0565b60008484015250505050565b6000601f19601f8301169050919050565b6000611ff382611f91565b611ffd8185611f9c565b935061200d818560208601611fad565b61201681611fd7565b840191505092915050565b6000602082019050818103600083015261203b8184611fe8565b905092915050565b6000819050919050565b61205681612043565b811461206157600080fd5b50565b6000813590506120738161204d565b92915050565b60006020828403121561208f5761208e611ecc565b5b600061209d84828501612064565b91505092915050565b600073ffffffffffffffffffffffffffffffffffffffff82169050919050565b60006120d1826120a6565b9050919050565b6120e1816120c6565b82525050565b60006020820190506120fc60008301846120d8565b92915050565b61210b81612043565b82525050565b60006020820190506121266000830184612102565b92915050565b612135816120c6565b811461214057600080fd5b50565b6000813590506121528161212c565b92915050565b6000806040838503121561216f5761216e611ecc565b5b600061217d85828601612143565b925050602061218e85828601612064565b9150509250929050565b6000806000606084860312156121b1576121b0611ecc565b5b60006121bf86828701612143565b93505060206121d086828701612143565b92505060406121e186828701612064565b9150509250925092565b60006020828403121561220157612200611ecc565b5b600061220f84828501612143565b91505092915050565b61222181611f5b565b811461222c57600080fd5b50565b60008135905061223e81612218565b92915050565b6000806040838503121561225b5761225a611ecc565b5b600061226985828601612143565b925050602061227a8582860161222f565b9150509250929050565b600080fd5b600080fd5b7f4e487b7100000000000000000000000000000000000000000000000000000000600052604160045260246000fd5b6122c682611fd7565b810181811067ffffffffffffffff821117156122e5576122e461228e565b5b80604052505050565b60006122f8611ec2565b905061230482826122bd565b919050565b600067ffffffffffffffff8211156123245761232361228e565b5b61232d82611fd7565b9050602081019050919050565b82818337600083830152505050565b600061235c61235784612309565b6122ee565b90508281526020810184848401111561237857612377612289565b5b61238384828561233a565b509392505050565b600082601f8301126123a05761239f612284565b5b81356123b0848260208601612349565b91505092915050565b600080600080608085870312156123d3576123d2611ecc565b5b60006123e187828801612143565b94505060206123f287828801612143565b935050604061240387828801612064565b925050606085013567ffffffffffffffff81111561242457612423611ed1565b5b6124308782880161238b565b91505092959194509250565b6000806040838503121561245357612452611ecc565b5b600061246185828601612143565b925050602061247285828601612143565b9150509250929050565b7f4e487b7100000000000000000000000000000000000000000000000000000000600052602260045260246000fd5b600060028204905060018216806124c357607f821691505b6020821081036124d6576124d561247c565b5b50919050565b7f4552433732313a20617070726f76616c20746f2063757272656e74206f776e6560008201527f7200000000000000000000000000000000000000000000000000000000000000602082015250565b6000612538602183611f9c565b9150612543826124dc565b604082019050919050565b600060208201905081810360008301526125678161252b565b9050919050565b7f4552433732313a20617070726f76652063616c6c6572206973206e6f7420746f60008201527f6b656e206f776e6572206f7220617070726f76656420666f7220616c6c000000602082015250565b60006125ca603d83611f9c565b91506125d58261256e565b604082019050919050565b600060208201905081810360008301526125f9816125bd565b9050919050565b7f4552433732313a2063616c6c6572206973206e6f7420746f6b656e206f776e6560008201527f72206f7220617070726f76656400000000000000000000000000000000000000602082015250565b600061265c602d83611f9c565b915061266782612600565b604082019050919050565b6000602082019050818103600083015261268b8161264f565b9050919050565b600081905092915050565b60006126a882611f91565b6126b28185612692565b93506126c2818560208601611fad565b80840191505092915050565b7f2e6a736f6e000000000000000000000000000000000000000000000000000000815250565b6000612700828561269d565b915061270c828461269d565b9150612717826126ce565b6005820191508190509392505050565b7f4552433732313a20696e76616c696420746f6b656e2049440000000000000000600082015250565b600061275d601883611f9c565b915061276882612727565b602082019050919050565b6000602082019050818103600083015261278c81612750565b9050919050565b7f4576656e74206973206e6f74207075626c697368656400000000000000000000600082015250565b60006127c9601683611f9c565b91506127d482612793565b602082019050919050565b600060208201905081810360008301526127f8816127bc565b9050919050565b7f41646472657373206e6f742077686974656c6973746564000000000000000000600082015250565b6000612835601783611f9c565b9150612840826127ff565b602082019050919050565b6000602082019050818103600083015261286481612828565b9050919050565b7f4e487b7100000000000000000000000000000000000000000000000000000000600052601160045260246000fd5b60006128a582612043565b91506128b083612043565b92508282019050808211156128c8576128c761286b565b5b92915050565b60006128d982612043565b91507fffffffffffffffffffffffffffffffffffffffffffffffffffffffffffffffff820361290b5761290a61286b565b5b600182019050919050565b7f4552433732313a2061646472657373207a65726f206973206e6f74206120766160008201527f6c6964206f776e65720000000000000000000000000000000000000000000000602082015250565b6000612972602983611f9c565b915061297d82612916565b604082019050919050565b600060208201905081810360008301526129a181612965565b9050919050565b60006129b4828561269d565b91506129c0828461269d565b91508190509392505050565b7f4f776e61626c653a206e6577206f776e657220697320746865207a65726f206160008201527f6464726573730000000000000000000000000000000000000000000000000000602082015250565b6000612a28602683611f9c565b9150612a33826129cc565b604082019050919050565b60006020820190508181036000830152612a5781612a1b565b9050919050565b7f4f776e61626c653a2063616c6c6572206973206e6f7420746865206f776e6572600082015250565b6000612a94602083611f9c565b9150612a9f82612a5e565b602082019050919050565b60006020820190508181036000830152612ac381612a87565b9050919050565b7f4552433732313a207472616e736665722066726f6d20696e636f72726563742060008201527f6f776e6572000000000000000000000000000000000000000000000000000000602082015250565b6000612b26602583611f9c565b9150612b3182612aca565b604082019050919050565b60006020820190508181036000830152612b5581612b19565b9050919050565b7f4552433732313a207472616e7366657220746f20746865207a65726f2061646460008201527f7265737300000000000000000000000000000000000000000000000000000000602082015250565b6000612bb8602483611f9c565b9150612bc382612b5c565b604082019050919050565b60006020820190508181036000830152612be781612bab565b9050919050565b60008190508160005260206000209050919050565b60008154612c10816124ab565b612c1a8186612692565b94506001821660008114612c355760018114612c4a57612c7d565b60ff1983168652811515820286019350612c7d565b612c5385612bee565b60005b83811015612c7557815481890152600182019150602081019050612c56565b838801955050505b50505092915050565b7f2f00000000000000000000000000000000000000000000000000000000000000815250565b6000612cb88285612c03565b9150612cc382612c86565b600182019150612cd3828461269d565b9150612cde82612c86565b6001820191508190509392505050565b7f4e487b7100000000000000000000000000000000000000000000000000000000600052601260045260246000fd5b7f4552433732313a20617070726f766520746f2063616c6c657200000000000000600082015250565b6000612d53601983611f9c565b9150612d5e82612d1d565b602082019050919050565b60006020820190508181036000830152612d8281612d46565b9050919050565b7f4552433732313a207472616e7366657220746f206e6f6e20455243373231526560008201527f63656976657220696d706c656d656e7465720000000000000000000000000000602082015250565b6000612de5603283611f9c565b9150612df082612d89565b604082019050919050565b60006020820190508181036000830152612e1481612dd8565b9050919050565b6000612e2682612043565b9150612e3183612043565b9250828203905081811115612e4957612e4861286b565b5b92915050565b600081519050919050565b600082825260208201905092915050565b6000612e7682612e4f565b612e808185612e5a565b9350612e90818560208601611fad565b612e9981611fd7565b840191505092915050565b6000608082019050612eb960008301876120d8565b612ec660208301866120d8565b612ed36040830185612102565b8181036060830152612ee58184612e6b565b905095945050505050565b600081519050612eff81611f02565b92915050565b600060208284031215612f1b57612f1a611ecc565b5b6000612f2984828501612ef0565b91505092915050565b7f4552433732313a206d696e7420746f20746865207a65726f2061646472657373600082015250565b6000612f68602083611f9c565b9150612f7382612f32565b602082019050919050565b60006020820190508181036000830152612f9781612f5b565b9050919050565b7f4552433732313a20746f6b656e20616c7265616479206d696e74656400000000600082015250565b6000612fd4601c83611f9c565b9150612fdf82612f9e565b602082019050919050565b6000602082019050818103600083015261300381612fc7565b905091905056fea2646970667358221220b70546c6eea2cfa1c1d80312b6ff98e43ba69b227a78c7d8ed640df95a60fa7764736f6c63430008110033",
  "linkReferences": {},
  "deployedLinkReferences": {}
}